{
  "_format": "hh-sol-artifact-1",
  "contractName": "Vote",
  "sourceName": "contracts/Vote.sol",
  "abi": [
    {
      "inputs": [
        {
          "internalType": "address",
          "name": "tokenAddress",
          "type": "address"
        }
      ],
      "stateMutability": "nonpayable",
      "type": "constructor"
    },
    {
      "inputs": [],
      "name": "InexistingVote",
      "type": "error"
    },
    {
      "inputs": [],
      "name": "InvalidOption",
      "type": "error"
    },
    {
      "inputs": [],
      "name": "NeedCanVoteToken",
      "type": "error"
    },
    {
      "inputs": [
        {
          "internalType": "address",
          "name": "owner",
          "type": "address"
        }
      ],
      "name": "OwnableInvalidOwner",
      "type": "error"
    },
    {
      "inputs": [
        {
          "internalType": "address",
          "name": "account",
          "type": "address"
        }
      ],
      "name": "OwnableUnauthorizedAccount",
      "type": "error"
    },
    {
      "inputs": [],
      "name": "VoteAlreadyDone",
      "type": "error"
    },
    {
      "inputs": [],
      "name": "VoteEnded",
      "type": "error"
    },
    {
      "anonymous": false,
      "inputs": [
        {
          "indexed": true,
          "internalType": "address",
          "name": "previousOwner",
          "type": "address"
        },
        {
          "indexed": true,
          "internalType": "address",
          "name": "newOwner",
          "type": "address"
        }
      ],
      "name": "OwnershipTransferred",
      "type": "event"
    },
    {
      "anonymous": false,
      "inputs": [
        {
          "indexed": false,
          "internalType": "uint256",
          "name": "voteId",
          "type": "uint256"
        },
        {
          "indexed": false,
          "internalType": "string",
          "name": "question",
          "type": "string"
        },
        {
          "indexed": false,
          "internalType": "string[4]",
          "name": "answers",
          "type": "string[4]"
        },
        {
          "indexed": false,
          "internalType": "uint256",
          "name": "startTime",
          "type": "uint256"
        }
      ],
      "name": "VoteCreated",
      "type": "event"
    },
    {
      "anonymous": false,
      "inputs": [
        {
          "indexed": false,
          "internalType": "uint256",
          "name": "voteId",
          "type": "uint256"
        },
        {
          "indexed": false,
          "internalType": "address",
          "name": "voter",
          "type": "address"
        },
        {
          "indexed": false,
          "internalType": "uint256",
          "name": "answerIndex",
          "type": "uint256"
        }
      ],
      "name": "Voted",
      "type": "event"
    },
    {
      "inputs": [],
      "name": "canVoteToken",
      "outputs": [
        {
          "internalType": "contract IERC20",
          "name": "",
          "type": "address"
        }
      ],
      "stateMutability": "view",
      "type": "function"
    },
    {
      "inputs": [
        {
          "internalType": "string",
          "name": "question",
          "type": "string"
        },
        {
          "internalType": "string[4]",
          "name": "answers",
          "type": "string[4]"
        }
      ],
      "name": "createVote",
      "outputs": [],
      "stateMutability": "nonpayable",
      "type": "function"
    },
    {
      "inputs": [
        {
          "internalType": "uint256",
          "name": "voteId",
          "type": "uint256"
        }
      ],
      "name": "getVoteDetails",
      "outputs": [
        {
          "internalType": "string",
          "name": "question",
          "type": "string"
        },
        {
          "internalType": "string[4]",
          "name": "answers",
          "type": "string[4]"
        },
        {
          "internalType": "uint256[4]",
          "name": "votesCount",
          "type": "uint256[4]"
        }
      ],
      "stateMutability": "view",
      "type": "function"
    },
    {
      "inputs": [],
      "name": "owner",
      "outputs": [
        {
          "internalType": "address",
          "name": "",
          "type": "address"
        }
      ],
      "stateMutability": "view",
      "type": "function"
    },
    {
      "inputs": [],
      "name": "renounceOwnership",
      "outputs": [],
      "stateMutability": "nonpayable",
      "type": "function"
    },
    {
      "inputs": [
        {
          "internalType": "address",
          "name": "newOwner",
          "type": "address"
        }
      ],
      "name": "transferOwnership",
      "outputs": [],
      "stateMutability": "nonpayable",
      "type": "function"
    },
    {
      "inputs": [
        {
          "internalType": "uint256",
          "name": "voteId",
          "type": "uint256"
        },
        {
          "internalType": "uint256",
          "name": "answerIndex",
          "type": "uint256"
        }
      ],
      "name": "vote",
      "outputs": [],
      "stateMutability": "nonpayable",
      "type": "function"
    },
    {
      "inputs": [
        {
          "internalType": "uint256",
          "name": "",
          "type": "uint256"
        }
      ],
      "name": "votes",
      "outputs": [
        {
          "internalType": "string",
          "name": "question",
          "type": "string"
        },
        {
          "internalType": "uint256",
          "name": "startTime",
          "type": "uint256"
        }
      ],
      "stateMutability": "view",
      "type": "function"
    },
    {
      "inputs": [],
      "name": "votesCount",
      "outputs": [
        {
          "internalType": "uint256",
          "name": "",
          "type": "uint256"
        }
      ],
      "stateMutability": "view",
      "type": "function"
    }
  ],
  "bytecode": "0x608060405234801561001057600080fd5b50604051611a32380380611a3283398181016040528101906100329190610223565b33600073ffffffffffffffffffffffffffffffffffffffff168173ffffffffffffffffffffffffffffffffffffffff16036100a55760006040517f1e4fbdf700000000000000000000000000000000000000000000000000000000815260040161009c919061025f565b60405180910390fd5b6100b4816100fc60201b60201c565b5080600260006101000a81548173ffffffffffffffffffffffffffffffffffffffff021916908373ffffffffffffffffffffffffffffffffffffffff1602179055505061027a565b60008060009054906101000a900473ffffffffffffffffffffffffffffffffffffffff169050816000806101000a81548173ffffffffffffffffffffffffffffffffffffffff021916908373ffffffffffffffffffffffffffffffffffffffff1602179055508173ffffffffffffffffffffffffffffffffffffffff168173ffffffffffffffffffffffffffffffffffffffff167f8be0079c531659141344cd1fd0a4f28419497f9722a3daafe3b4186f6b6457e060405160405180910390a35050565b600080fd5b600073ffffffffffffffffffffffffffffffffffffffff82169050919050565b60006101f0826101c5565b9050919050565b610200816101e5565b811461020b57600080fd5b50565b60008151905061021d816101f7565b92915050565b600060208284031215610239576102386101c0565b5b60006102478482850161020e565b91505092915050565b610259816101e5565b82525050565b60006020820190506102746000830184610250565b92915050565b6117a9806102896000396000f3fe608060405234801561001057600080fd5b50600436106100935760003560e01c80638da5cb5b116100665780638da5cb5b14610123578063b384abef14610141578063e5766efd1461015d578063f2fde38b14610179578063f7b731281461019557610093565b806354a1b431146100985780635df81330146100ca578063715018a6146100fb5780638778b27d14610105575b600080fd5b6100b260048036038101906100ad9190610c02565b6101b3565b6040516100c193929190610e6a565b60405180910390f35b6100e460048036038101906100df9190610c02565b6103e6565b6040516100f2929190610ebe565b60405180910390f35b610103610492565b005b61010d6104a6565b60405161011a9190610eee565b60405180910390f35b61012b6104ac565b6040516101389190610f4a565b60405180910390f35b61015b60048036038101906101569190610f65565b6104d5565b005b610177600480360381019061017291906111ae565b6107d5565b005b610193600480360381019061018e9190611252565b6108a3565b005b61019d610929565b6040516101aa91906112de565b60405180910390f35b60606101bd610aa2565b6101c5610ac9565b600484106101ff576040517fbf47aee800000000000000000000000000000000000000000000000000000000815260040160405180910390fd5b60006003600086815260200190815260200160002060405180608001604052908160008201805461022f90611328565b80601f016020809104026020016040519081016040528092919081815260200182805461025b90611328565b80156102a85780601f1061027d576101008083540402835291602001916102a8565b820191906000526020600020905b81548152906001019060200180831161028b57829003601f168201915b5050505050815260200160018201600480602002604051908101604052809291906000905b828210156103705783820180546102e390611328565b80601f016020809104026020016040519081016040528092919081815260200182805461030f90611328565b801561035c5780601f106103315761010080835404028352916020019161035c565b820191906000526020600020905b81548152906001019060200180831161033f57829003601f168201915b5050505050815260200190600101906102cd565b50505050815260200160058201548152602001600682016004806020026040519081016040528092919082600480156103be576020028201915b8154815260200190600101908083116103aa575b5050505050815250509050806000015181602001518260600151935093509350509193909250565b600360205280600052604060002060009150905080600001805461040990611328565b80601f016020809104026020016040519081016040528092919081815260200182805461043590611328565b80156104825780601f1061045757610100808354040283529160200191610482565b820191906000526020600020905b81548152906001019060200180831161046557829003601f168201915b5050505050908060050154905082565b61049a61094f565b6104a460006109d6565b565b60045481565b60008060009054906101000a900473ffffffffffffffffffffffffffffffffffffffff16905090565b6004548210610510576040517fbf47aee800000000000000000000000000000000000000000000000000000000815260040160405180910390fd5b6201518060036000848152602001908152602001600020600501546105359190611388565b42111561056e576040517f58a587d200000000000000000000000000000000000000000000000000000000815260040160405180910390fd5b600160003373ffffffffffffffffffffffffffffffffffffffff1673ffffffffffffffffffffffffffffffffffffffff16815260200190815260200160002060009054906101000a900460ff166105f1576040517f76fe0ac000000000000000000000000000000000000000000000000000000000815260040160405180910390fd5b6000600260009054906101000a900473ffffffffffffffffffffffffffffffffffffffff1673ffffffffffffffffffffffffffffffffffffffff166370a08231336040518263ffffffff1660e01b815260040161064e9190610f4a565b602060405180830381865afa15801561066b573d6000803e3d6000fd5b505050506040513d601f19601f8201168201806040525081019061068f91906113d1565b116106c6576040517f643e62af00000000000000000000000000000000000000000000000000000000815260040160405180910390fd5b60048110610700576040517f2a71953100000000000000000000000000000000000000000000000000000000815260040160405180910390fd5b60018060003373ffffffffffffffffffffffffffffffffffffffff1673ffffffffffffffffffffffffffffffffffffffff16815260200190815260200160002060006101000a81548160ff02191690831515021790555060036000838152602001908152602001600020600601816004811061077f5761077e6113fe565b5b0160008154809291906107919061142d565b91905055507f1abe610cf2bf87e57dcc1181fcf5ac0934e843d8344ab9eed6e86c799f62585e8233836040516107c993929190611475565b60405180910390a15050565b6107dd61094f565b816003600060045481526020019081526020016000206000019081610802919061164e565b508060036000600454815260200190815260200160002060010190600461082a929190610aeb565b5042600360006004548152602001908152602001600020600501819055507f9b4c70ec9e0e52191dbcc703a6b1d837847350ad2e055da98be1a3bad3d94f2260045483834260405161087f9493929190611720565b60405180910390a16004600081548092919061089a9061142d565b91905055505050565b6108ab61094f565b600073ffffffffffffffffffffffffffffffffffffffff168173ffffffffffffffffffffffffffffffffffffffff160361091d5760006040517f1e4fbdf70000000000000000000000000000000000000000000000000000000081526004016109149190610f4a565b60405180910390fd5b610926816109d6565b50565b600260009054906101000a900473ffffffffffffffffffffffffffffffffffffffff1681565b610957610a9a565b73ffffffffffffffffffffffffffffffffffffffff166109756104ac565b73ffffffffffffffffffffffffffffffffffffffff16146109d457610998610a9a565b6040517f118cdaa70000000000000000000000000000000000000000000000000000000081526004016109cb9190610f4a565b60405180910390fd5b565b60008060009054906101000a900473ffffffffffffffffffffffffffffffffffffffff169050816000806101000a81548173ffffffffffffffffffffffffffffffffffffffff021916908373ffffffffffffffffffffffffffffffffffffffff1602179055508173ffffffffffffffffffffffffffffffffffffffff168173ffffffffffffffffffffffffffffffffffffffff167f8be0079c531659141344cd1fd0a4f28419497f9722a3daafe3b4186f6b6457e060405160405180910390a35050565b600033905090565b60405180608001604052806004905b6060815260200190600190039081610ab15790505090565b6040518060800160405280600490602082028036833780820191505090505090565b8260048101928215610b26579160200282015b82811115610b25578251829081610b15919061164e565b5091602001919060010190610afe565b5b509050610b339190610b37565b5090565b5b80821115610b575760008181610b4e9190610b5b565b50600101610b38565b5090565b508054610b6790611328565b6000825580601f10610b795750610b98565b601f016020900490600052602060002090810190610b979190610b9b565b5b50565b5b80821115610bb4576000816000905550600101610b9c565b5090565b6000604051905090565b600080fd5b600080fd5b6000819050919050565b610bdf81610bcc565b8114610bea57600080fd5b50565b600081359050610bfc81610bd6565b92915050565b600060208284031215610c1857610c17610bc2565b5b6000610c2684828501610bed565b91505092915050565b600081519050919050565b600082825260208201905092915050565b60005b83811015610c69578082015181840152602081019050610c4e565b60008484015250505050565b6000601f19601f8301169050919050565b6000610c9182610c2f565b610c9b8185610c3a565b9350610cab818560208601610c4b565b610cb481610c75565b840191505092915050565b600060049050919050565b600081905092915050565b6000819050919050565b600082825260208201905092915050565b6000610cfb82610c2f565b610d058185610cdf565b9350610d15818560208601610c4b565b610d1e81610c75565b840191505092915050565b6000610d358383610cf0565b905092915050565b6000602082019050919050565b6000610d5582610cbf565b610d5f8185610cca565b935083602082028501610d7185610cd5565b8060005b85811015610dad5784840389528151610d8e8582610d29565b9450610d9983610d3d565b925060208a01995050600181019050610d75565b50829750879550505050505092915050565b600060049050919050565b600081905092915050565b6000819050919050565b610de881610bcc565b82525050565b6000610dfa8383610ddf565b60208301905092915050565b6000602082019050919050565b610e1c81610dbf565b610e268184610dca565b9250610e3182610dd5565b8060005b83811015610e62578151610e498782610dee565b9650610e5483610e06565b925050600181019050610e35565b505050505050565b600060c0820190508181036000830152610e848186610c86565b90508181036020830152610e988185610d4a565b9050610ea76040830184610e13565b949350505050565b610eb881610bcc565b82525050565b60006040820190508181036000830152610ed88185610c86565b9050610ee76020830184610eaf565b9392505050565b6000602082019050610f036000830184610eaf565b92915050565b600073ffffffffffffffffffffffffffffffffffffffff82169050919050565b6000610f3482610f09565b9050919050565b610f4481610f29565b82525050565b6000602082019050610f5f6000830184610f3b565b92915050565b60008060408385031215610f7c57610f7b610bc2565b5b6000610f8a85828601610bed565b9250506020610f9b85828601610bed565b9150509250929050565b600080fd5b600080fd5b7f4e487b7100000000000000000000000000000000000000000000000000000000600052604160045260246000fd5b610fe782610c75565b810181811067ffffffffffffffff8211171561100657611005610faf565b5b80604052505050565b6000611019610bb8565b90506110258282610fde565b919050565b600067ffffffffffffffff82111561104557611044610faf565b5b61104e82610c75565b9050602081019050919050565b82818337600083830152505050565b600061107d6110788461102a565b61100f565b90508281526020810184848401111561109957611098610faa565b5b6110a484828561105b565b509392505050565b600082601f8301126110c1576110c0610fa5565b5b81356110d184826020860161106a565b91505092915050565b600067ffffffffffffffff8211156110f5576110f4610faf565b5b602082029050919050565b600080fd5b6000611118611113846110da565b61100f565b9050806020840283018581111561113257611131611100565b5b835b8181101561117957803567ffffffffffffffff81111561115757611156610fa5565b5b80860161116489826110ac565b85526020850194505050602081019050611134565b5050509392505050565b600082601f83011261119857611197610fa5565b5b60046111a5848285611105565b91505092915050565b600080604083850312156111c5576111c4610bc2565b5b600083013567ffffffffffffffff8111156111e3576111e2610bc7565b5b6111ef858286016110ac565b925050602083013567ffffffffffffffff8111156112105761120f610bc7565b5b61121c85828601611183565b9150509250929050565b61122f81610f29565b811461123a57600080fd5b50565b60008135905061124c81611226565b92915050565b60006020828403121561126857611267610bc2565b5b60006112768482850161123d565b91505092915050565b6000819050919050565b60006112a461129f61129a84610f09565b61127f565b610f09565b9050919050565b60006112b682611289565b9050919050565b60006112c8826112ab565b9050919050565b6112d8816112bd565b82525050565b60006020820190506112f360008301846112cf565b92915050565b7f4e487b7100000000000000000000000000000000000000000000000000000000600052602260045260246000fd5b6000600282049050600182168061134057607f821691505b602082108103611353576113526112f9565b5b50919050565b7f4e487b7100000000000000000000000000000000000000000000000000000000600052601160045260246000fd5b600061139382610bcc565b915061139e83610bcc565b92508282019050808211156113b6576113b5611359565b5b92915050565b6000815190506113cb81610bd6565b92915050565b6000602082840312156113e7576113e6610bc2565b5b60006113f5848285016113bc565b91505092915050565b7f4e487b7100000000000000000000000000000000000000000000000000000000600052603260045260246000fd5b600061143882610bcc565b91507fffffffffffffffffffffffffffffffffffffffffffffffffffffffffffffffff820361146a57611469611359565b5b600182019050919050565b600060608201905061148a6000830186610eaf565b6114976020830185610f3b565b6114a46040830184610eaf565b949350505050565b60008190508160005260206000209050919050565b60006020601f8301049050919050565b600082821b905092915050565b60006008830261150e7fffffffffffffffffffffffffffffffffffffffffffffffffffffffffffffffff826114d1565b61151886836114d1565b95508019841693508086168417925050509392505050565b600061154b61154661154184610bcc565b61127f565b610bcc565b9050919050565b6000819050919050565b61156583611530565b61157961157182611552565b8484546114de565b825550505050565b600090565b61158e611581565b61159981848461155c565b505050565b5b818110156115bd576115b2600082611586565b60018101905061159f565b5050565b601f821115611602576115d3816114ac565b6115dc846114c1565b810160208510156115eb578190505b6115ff6115f7856114c1565b83018261159e565b50505b505050565b600082821c905092915050565b600061162560001984600802611607565b1980831691505092915050565b600061163e8383611614565b9150826002028217905092915050565b61165782610c2f565b67ffffffffffffffff8111156116705761166f610faf565b5b61167a8254611328565b6116858282856115c1565b600060209050601f8311600181146116b857600084156116a6578287015190505b6116b08582611632565b865550611718565b601f1984166116c6866114ac565b60005b828110156116ee578489015182556001820191506020850194506020810190506116c9565b8683101561170b5784890151611707601f891682611614565b8355505b6001600288020188555050505b505050505050565b60006080820190506117356000830187610eaf565b81810360208301526117478186610c86565b9050818103604083015261175b8185610d4a565b905061176a6060830184610eaf565b9594505050505056fea264697066735822122077288735d3a0a92f2a53130af65bb8efc977c3ae8f4769625d7c348186386f8864736f6c634300081c0033",
  "linkReferences": {},
  "deployedLinkReferences": {}
}